{"abi":[{"type":"constructor","inputs":[{"name":"tokenAddresses","type":"address[]","internalType":"address[]"},{"name":"priceFeedAddresses","type":"address[]","internalType":"address[]"},{"name":"dscAddress","type":"address","internalType":"address"}],"stateMutability":"nonpayable"},{"type":"function","name":"burnDsc","inputs":[{"name":"amount","type":"uint256","internalType":"uint256"}],"outputs":[],"stateMutability":"nonpayable"},{"type":"function","name":"calculateHealthFactor","inputs":[{"name":"totalDscMinted","type":"uint256","internalType":"uint256"},{"name":"collateralValueInUsd","type":"uint256","internalType":"uint256"}],"outputs":[{"name":"","type":"uint256","internalType":"uint256"}],"stateMutability":"pure"},{"type":"function","name":"depositCollateral","inputs":[{"name":"tokenCollateralAddress","type":"address","internalType":"address"},{"name":"amountCollateral","type":"uint256","internalType":"uint256"}],"outputs":[],"stateMutability":"nonpayable"},{"type":"function","name":"depositCollateralAndMintDsc","inputs":[{"name":"tokenCollateralAddress","type":"address","internalType":"address"},{"name":"amountCollateral","type":"uint256","internalType":"uint256"},{"name":"amountDscToMint","type":"uint256","internalType":"uint256"}],"outputs":[],"stateMutability":"nonpayable"},{"type":"function","name":"getAccountCollateralValue","inputs":[{"name":"user","type":"address","internalType":"address"}],"outputs":[{"name":"totalCollateralValueInUsd","type":"uint256","internalType":"uint256"}],"stateMutability":"view"},{"type":"function","name":"getAccountInformation","inputs":[{"name":"user","type":"address","internalType":"address"}],"outputs":[{"name":"totalDscMinted","type":"uint256","internalType":"uint256"},{"name":"collateralValueInUsd","type":"uint256","internalType":"uint256"}],"stateMutability":"view"},{"type":"function","name":"getAdditionalFeedPrecision","inputs":[],"outputs":[{"name":"","type":"uint256","internalType":"uint256"}],"stateMutability":"pure"},{"type":"function","name":"getCollateralBalanceOfUser","inputs":[{"name":"user","type":"address","internalType":"address"},{"name":"token","type":"address","internalType":"address"}],"outputs":[{"name":"","type":"uint256","internalType":"uint256"}],"stateMutability":"view"},{"type":"function","name":"getCollateralTokenPriceFeed","inputs":[{"name":"token","type":"address","internalType":"address"}],"outputs":[{"name":"","type":"address","internalType":"address"}],"stateMutability":"view"},{"type":"function","name":"getCollateralTokens","inputs":[],"outputs":[{"name":"","type":"address[]","internalType":"address[]"}],"stateMutability":"view"},{"type":"function","name":"getDsc","inputs":[],"outputs":[{"name":"","type":"address","internalType":"address"}],"stateMutability":"view"},{"type":"function","name":"getHealthFactor","inputs":[{"name":"user","type":"address","internalType":"address"}],"outputs":[{"name":"","type":"uint256","internalType":"uint256"}],"stateMutability":"view"},{"type":"function","name":"getLiquidationBonus","inputs":[],"outputs":[{"name":"","type":"uint256","internalType":"uint256"}],"stateMutability":"pure"},{"type":"function","name":"getLiquidationPrecision","inputs":[],"outputs":[{"name":"","type":"uint256","internalType":"uint256"}],"stateMutability":"pure"},{"type":"function","name":"getLiquidationThreshold","inputs":[],"outputs":[{"name":"","type":"uint256","internalType":"uint256"}],"stateMutability":"pure"},{"type":"function","name":"getMinHealthFactor","inputs":[],"outputs":[{"name":"","type":"uint256","internalType":"uint256"}],"stateMutability":"pure"},{"type":"function","name":"getPrecision","inputs":[],"outputs":[{"name":"","type":"uint256","internalType":"uint256"}],"stateMutability":"pure"},{"type":"function","name":"getTokenAmountFromUsd","inputs":[{"name":"token","type":"address","internalType":"address"},{"name":"usdAmountInWei","type":"uint256","internalType":"uint256"}],"outputs":[{"name":"","type":"uint256","internalType":"uint256"}],"stateMutability":"view"},{"type":"function","name":"getUsdValue","inputs":[{"name":"token","type":"address","internalType":"address"},{"name":"amount","type":"uint256","internalType":"uint256"}],"outputs":[{"name":"","type":"uint256","internalType":"uint256"}],"stateMutability":"view"},{"type":"function","name":"liquidate","inputs":[{"name":"collateral","type":"address","internalType":"address"},{"name":"user","type":"address","internalType":"address"},{"name":"debtToCover","type":"uint256","internalType":"uint256"}],"outputs":[],"stateMutability":"nonpayable"},{"type":"function","name":"mintDsc","inputs":[{"name":"amountDscToMint","type":"uint256","internalType":"uint256"}],"outputs":[],"stateMutability":"nonpayable"},{"type":"function","name":"redeemCollateral","inputs":[{"name":"tokenCollateralAddress","type":"address","internalType":"address"},{"name":"amountCollateral","type":"uint256","internalType":"uint256"}],"outputs":[],"stateMutability":"nonpayable"},{"type":"function","name":"redeemCollateralForDsc","inputs":[{"name":"tokenCollateralAddress","type":"address","internalType":"address"},{"name":"amountCollateral","type":"uint256","internalType":"uint256"},{"name":"amountDscToBurn","type":"uint256","internalType":"uint256"}],"outputs":[],"stateMutability":"nonpayable"},{"type":"event","name":"CollateralDeposited","inputs":[{"name":"user","type":"address","indexed":true,"internalType":"address"},{"name":"token","type":"address","indexed":true,"internalType":"address"},{"name":"amount","type":"uint256","indexed":true,"internalType":"uint256"}],"anonymous":false},{"type":"event","name":"CollateralRedeemed","inputs":[{"name":"redeemedFrom","type":"address","indexed":true,"internalType":"address"},{"name":"redeemedTo","type":"address","indexed":true,"internalType":"address"},{"name":"token","type":"address","indexed":true,"internalType":"address"},{"name":"amount","type":"uint256","indexed":false,"internalType":"uint256"}],"anonymous":false},{"type":"error","name":"DSCEngine__BreaksHealthFactor","inputs":[{"name":"healthFactor","type":"uint256","internalType":"uint256"}]},{"type":"error","name":"DSCEngine__HealthFactorNotImproved","inputs":[]},{"type":"error","name":"DSCEngine__HealthFactorOk","inputs":[]},{"type":"error","name":"DSCEngine__MintFailed","inputs":[]},{"type":"error","name":"DSCEngine__NeedsMoreThanZero","inputs":[]},{"type":"error","name":"DSCEngine__TokenAddressesAndPriceFeedAddressesMustBeSameLength","inputs":[]},{"type":"error","name":"DSCEngine__TokenNotAllowed","inputs":[{"name":"token","type":"address","internalType":"address"}]},{"type":"error","name":"DSCEngine__TransferFailed","inputs":[]},{"type":"error","name":"ReentrancyGuardReentrantCall","inputs":[]}],"bytecode":{"object":"0x60a060405234801562000010575f80fd5b5060405162002298380380620022988339818101604052810190620000369190620003e9565b60015f81905550815183511462000079576040517fb5c5c12600000000000000000000000000000000000000000000000000000000815260040160405180910390fd5b5f5b8351811015620001cd578281815181106200009b576200009a62000480565b5b602002602001015160015f868481518110620000bc57620000bb62000480565b5b602002602001015173ffffffffffffffffffffffffffffffffffffffff1673ffffffffffffffffffffffffffffffffffffffff1681526020019081526020015f205f6101000a81548173ffffffffffffffffffffffffffffffffffffffff021916908373ffffffffffffffffffffffffffffffffffffffff160217905550600484828151811062000152576200015162000480565b5b6020026020010151908060018154018082558091505060019003905f5260205f20015f9091909190916101000a81548173ffffffffffffffffffffffffffffffffffffffff021916908373ffffffffffffffffffffffffffffffffffffffff1602179055508080620001c490620004e3565b9150506200007b565b508073ffffffffffffffffffffffffffffffffffffffff1660808173ffffffffffffffffffffffffffffffffffffffff16815250505050506200052f565b5f604051905090565b5f80fd5b5f80fd5b5f80fd5b5f601f19601f8301169050919050565b7f4e487b71000000000000000000000000000000000000000000000000000000005f52604160045260245ffd5b620002688262000220565b810181811067ffffffffffffffff821117156200028a576200028962000230565b5b80604052505050565b5f6200029e6200020b565b9050620002ac82826200025d565b919050565b5f67ffffffffffffffff821115620002ce57620002cd62000230565b5b602082029050602081019050919050565b5f80fd5b5f73ffffffffffffffffffffffffffffffffffffffff82169050919050565b5f6200030e82620002e3565b9050919050565b620003208162000302565b81146200032b575f80fd5b50565b5f815190506200033e8162000315565b92915050565b5f6200035a6200035484620002b1565b62000293565b9050808382526020820190506020840283018581111562000380576200037f620002df565b5b835b81811015620003ad57806200039888826200032e565b84526020840193505060208101905062000382565b5050509392505050565b5f82601f830112620003ce57620003cd6200021c565b5b8151620003e084826020860162000344565b91505092915050565b5f805f6060848603121562000403576200040262000214565b5b5f84015167ffffffffffffffff81111562000423576200042262000218565b5b6200043186828701620003b7565b935050602084015167ffffffffffffffff81111562000455576200045462000218565b5b6200046386828701620003b7565b925050604062000476868287016200032e565b9150509250925092565b7f4e487b71000000000000000000000000000000000000000000000000000000005f52603260045260245ffd5b7f4e487b71000000000000000000000000000000000000000000000000000000005f52601160045260245ffd5b5f819050919050565b5f620004ef82620004da565b91507fffffffffffffffffffffffffffffffffffffffffffffffffffffffffffffffff8203620005245762000523620004ad565b5b600182019050919050565b608051611d3b6200055d5f395f8181610ec001528181610fa20152818161138b01526114610152611d3b5ff3fe608060405234801561000f575f80fd5b506004361061014b575f3560e01c80639670c0bc116100c1578063c9b7c3271161007a578063c9b7c327146103c6578063deb8e018146103e2578063e90db8a314610400578063f419ea9c1461041c578063f687660814610438578063fe6bcd7c146104545761014b565b80639670c0bc146102f25780639acd81b314610310578063a5d5db0c1461032c578063afea2e4814610348578063b58eb63f14610378578063c660d112146103965761014b565b806359aa9e721161011357806359aa9e72146102195780636c8102c0146102375780637be564fc146102555780637d1a4450146102865780638c1ae6c8146102b65780638f63d667146102d45761014b565b806301f728841461014f5780631c08adda1461017f57806326c01303146101af57806331e92b83146101cb5780634ae9b8bc146101fb575b5f80fd5b610169600480360381019061016491906115db565b610484565b6040516101769190611628565b60405180910390f35b6101996004803603810190610194919061169b565b610497565b6040516101a691906116d5565b60405180910390f35b6101c960048036038101906101c491906116ee565b6104fc565b005b6101e560048036038101906101e0919061173e565b61063c565b6040516101f29190611628565b60405180910390f35b6102036106be565b6040516102109190611628565b60405180910390f35b6102216106c6565b60405161022e9190611628565b60405180910390f35b61023f6106ce565b60405161024c9190611628565b60405180910390f35b61026f600480360381019061026a919061169b565b6106d6565b60405161027d92919061177c565b60405180910390f35b6102a0600480360381019061029b919061169b565b6106ea565b6040516102ad9190611628565b60405180910390f35b6102be6107ea565b6040516102cb9190611628565b60405180910390f35b6102dc6107f9565b6040516102e99190611628565b60405180910390f35b6102fa610805565b6040516103079190611628565b60405180910390f35b61032a600480360381019061032591906117a3565b610814565b005b610346600480360381019061034191906117a3565b610878565b005b610362600480360381019061035d91906117a3565b610b36565b60405161036f9190611628565b60405180910390f35b610380610c65565b60405161038d9190611898565b60405180910390f35b6103b060048036038101906103ab91906117a3565b610cf0565b6040516103bd9190611628565b60405180910390f35b6103e060048036038101906103db91906118b8565b610e1f565b005b6103ea610f9f565b6040516103f791906116d5565b60405180910390f35b61041a600480360381019061041591906118e3565b610fc6565b005b610436600480360381019061043191906118e3565b610fde565b005b610452600480360381019061044d91906118b8565b610ff6565b005b61046e6004803603810190610469919061169b565b611048565b60405161047b9190611628565b60405180910390f35b5f61048f8383611059565b905092915050565b5f60015f8373ffffffffffffffffffffffffffffffffffffffff1673ffffffffffffffffffffffffffffffffffffffff1681526020019081526020015f205f9054906101000a900473ffffffffffffffffffffffffffffffffffffffff169050919050565b805f8111610536576040517fcb1d3f7d00000000000000000000000000000000000000000000000000000000815260040160405180910390fd5b61053e6110ce565b5f61054884611112565b9050670de0b6b3a764000081111561058c576040517f32c072f000000000000000000000000000000000000000000000000000000000815260040160405180910390fd5b5f6105978685610b36565b90505f6064600a836105a99190611960565b6105b391906119ce565b90505f81836105c291906119fe565b90506105d087338a84611135565b6105db8688336112fb565b5f6105e588611112565b9050848111610620576040517f7c28362000000000000000000000000000000000000000000000000000000000815260040160405180910390fd5b610629336114ec565b5050505050610636611549565b50505050565b5f60025f8473ffffffffffffffffffffffffffffffffffffffff1673ffffffffffffffffffffffffffffffffffffffff1681526020019081526020015f205f8373ffffffffffffffffffffffffffffffffffffffff1673ffffffffffffffffffffffffffffffffffffffff1681526020019081526020015f2054905092915050565b5f6032905090565b5f600a905090565b5f6064905090565b5f806106e183611552565b91509150915091565b5f805f90505b6004805490508110156107e4575f6004828154811061071257610711611a31565b5b905f5260205f20015f9054906101000a900473ffffffffffffffffffffffffffffffffffffffff1690505f60025f8673ffffffffffffffffffffffffffffffffffffffff1673ffffffffffffffffffffffffffffffffffffffff1681526020019081526020015f205f8373ffffffffffffffffffffffffffffffffffffffff1673ffffffffffffffffffffffffffffffffffffffff1681526020019081526020015f205490506107c28282610cf0565b846107cd91906119fe565b9350505080806107dc90611a5e565b9150506106f0565b50919050565b5f670de0b6b3a7640000905090565b5f6402540be400905090565b5f670de0b6b3a7640000905090565b805f811161084e576040517fcb1d3f7d00000000000000000000000000000000000000000000000000000000815260040160405180910390fd5b6108566110ce565b61086233338585611135565b61086b336114ec565b610873611549565b505050565b805f81116108b2576040517fcb1d3f7d00000000000000000000000000000000000000000000000000000000815260040160405180910390fd5b6108ba6110ce565b825f73ffffffffffffffffffffffffffffffffffffffff1660015f8373ffffffffffffffffffffffffffffffffffffffff1673ffffffffffffffffffffffffffffffffffffffff1681526020019081526020015f205f9054906101000a900473ffffffffffffffffffffffffffffffffffffffff1673ffffffffffffffffffffffffffffffffffffffff160361098757806040517fcf39359500000000000000000000000000000000000000000000000000000000815260040161097e91906116d5565b60405180910390fd5b8260025f3373ffffffffffffffffffffffffffffffffffffffff1673ffffffffffffffffffffffffffffffffffffffff1681526020019081526020015f205f8673ffffffffffffffffffffffffffffffffffffffff1673ffffffffffffffffffffffffffffffffffffffff1681526020019081526020015f205f828254610a0e91906119fe565b92505081905550828473ffffffffffffffffffffffffffffffffffffffff163373ffffffffffffffffffffffffffffffffffffffff167ff1c0dd7e9b98bbff859029005ef89b127af049cd18df1a8d79f0b7e019911e5660405160405180910390a45f8473ffffffffffffffffffffffffffffffffffffffff166323b872dd3330876040518463ffffffff1660e01b8152600401610aae93929190611aa5565b6020604051808303815f875af1158015610aca573d5f803e3d5ffd5b505050506040513d601f19601f82011682018060405250810190610aee9190611b0f565b905080610b27576040517f4dc34d1700000000000000000000000000000000000000000000000000000000815260040160405180910390fd5b5050610b31611549565b505050565b5f8060015f8573ffffffffffffffffffffffffffffffffffffffff1673ffffffffffffffffffffffffffffffffffffffff1681526020019081526020015f205f9054906101000a900473ffffffffffffffffffffffffffffffffffffffff1690505f8173ffffffffffffffffffffffffffffffffffffffff1673__$1f06ac8d622ce42796cee98ba1044ce165$__632ba1c96a90916040518263ffffffff1660e01b8152600401610be79190611b95565b60a060405180830381865af4158015610c02573d5f803e3d5ffd5b505050506040513d601f19601f82011682018060405250810190610c269190611c34565b5050509150506402540be40081610c3d9190611960565b670de0b6b3a764000085610c519190611960565b610c5b91906119ce565b9250505092915050565b60606004805480602002602001604051908101604052809291908181526020018280548015610ce657602002820191905f5260205f20905b815f9054906101000a900473ffffffffffffffffffffffffffffffffffffffff1673ffffffffffffffffffffffffffffffffffffffff1681526020019060010190808311610c9d575b5050505050905090565b5f8060015f8573ffffffffffffffffffffffffffffffffffffffff1673ffffffffffffffffffffffffffffffffffffffff1681526020019081526020015f205f9054906101000a900473ffffffffffffffffffffffffffffffffffffffff1690505f8173ffffffffffffffffffffffffffffffffffffffff1673__$1f06ac8d622ce42796cee98ba1044ce165$__632ba1c96a90916040518263ffffffff1660e01b8152600401610da19190611b95565b60a060405180830381865af4158015610dbc573d5f803e3d5ffd5b505050506040513d601f19601f82011682018060405250810190610de09190611c34565b505050915050670de0b6b3a7640000846402540be40083610e019190611960565b610e0b9190611960565b610e1591906119ce565b9250505092915050565b805f8111610e59576040517fcb1d3f7d00000000000000000000000000000000000000000000000000000000815260040160405180910390fd5b610e616110ce565b8160035f3373ffffffffffffffffffffffffffffffffffffffff1673ffffffffffffffffffffffffffffffffffffffff1681526020019081526020015f205f828254610ead91906119fe565b92505081905550610ebd336114ec565b5f7f000000000000000000000000000000000000000000000000000000000000000073ffffffffffffffffffffffffffffffffffffffff166340c10f1933856040518363ffffffff1660e01b8152600401610f19929190611cab565b6020604051808303815f875af1158015610f35573d5f803e3d5ffd5b505050506040513d601f19601f82011682018060405250810190610f599190611b0f565b905080610f92576040517f30eb0fc900000000000000000000000000000000000000000000000000000000815260040160405180910390fd5b50610f9b611549565b5050565b5f7f0000000000000000000000000000000000000000000000000000000000000000905090565b610fd08383610878565b610fd981610e1f565b505050565b610fe781610ff6565b610ff18383610814565b505050565b805f8111611030576040517fcb1d3f7d00000000000000000000000000000000000000000000000000000000815260040160405180910390fd5b61103b8233336112fb565b611044336114ec565b5050565b5f61105282611112565b9050919050565b5f808303611089577fffffffffffffffffffffffffffffffffffffffffffffffffffffffffffffffff90506110c8565b5f60646032846110999190611960565b6110a391906119ce565b905083670de0b6b3a7640000826110ba9190611960565b6110c491906119ce565b9150505b92915050565b60025f5403611109576040517f3ee5aeb500000000000000000000000000000000000000000000000000000000815260040160405180910390fd5b60025f81905550565b5f805f61111e84611552565b9150915061112c8282611059565b92505050919050565b8060025f8673ffffffffffffffffffffffffffffffffffffffff1673ffffffffffffffffffffffffffffffffffffffff1681526020019081526020015f205f8473ffffffffffffffffffffffffffffffffffffffff1673ffffffffffffffffffffffffffffffffffffffff1681526020019081526020015f205f8282546111bc9190611cd2565b925050819055508173ffffffffffffffffffffffffffffffffffffffff168373ffffffffffffffffffffffffffffffffffffffff168573ffffffffffffffffffffffffffffffffffffffff167fb292db12b8dfa23b760ee5e3bd1d3be184cd8f0eeeacd27ce120d4de4e4721f6846040516112379190611628565b60405180910390a45f8273ffffffffffffffffffffffffffffffffffffffff1663a9059cbb85846040518363ffffffff1660e01b815260040161127b929190611cab565b6020604051808303815f875af1158015611297573d5f803e3d5ffd5b505050506040513d601f19601f820116820180604052508101906112bb9190611b0f565b9050806112f4576040517f4dc34d1700000000000000000000000000000000000000000000000000000000815260040160405180910390fd5b5050505050565b825f8111611335576040517fcb1d3f7d00000000000000000000000000000000000000000000000000000000815260040160405180910390fd5b8360035f8573ffffffffffffffffffffffffffffffffffffffff1673ffffffffffffffffffffffffffffffffffffffff1681526020019081526020015f205f8282546113819190611cd2565b925050819055505f7f000000000000000000000000000000000000000000000000000000000000000073ffffffffffffffffffffffffffffffffffffffff166323b872dd8430886040518463ffffffff1660e01b81526004016113e693929190611aa5565b6020604051808303815f875af1158015611402573d5f803e3d5ffd5b505050506040513d601f19601f820116820180604052508101906114269190611b0f565b90508061145f576040517f4dc34d1700000000000000000000000000000000000000000000000000000000815260040160405180910390fd5b7f000000000000000000000000000000000000000000000000000000000000000073ffffffffffffffffffffffffffffffffffffffff166342966c68866040518263ffffffff1660e01b81526004016114b89190611628565b5f604051808303815f87803b1580156114cf575f80fd5b505af11580156114e1573d5f803e3d5ffd5b505050505050505050565b5f6114f682611112565b9050670de0b6b3a764000081101561154557806040517fe580cc6100000000000000000000000000000000000000000000000000000000815260040161153c9190611628565b60405180910390fd5b5050565b60015f81905550565b5f8060035f8473ffffffffffffffffffffffffffffffffffffffff1673ffffffffffffffffffffffffffffffffffffffff1681526020019081526020015f2054915061159d836106ea565b9050915091565b5f80fd5b5f819050919050565b6115ba816115a8565b81146115c4575f80fd5b50565b5f813590506115d5816115b1565b92915050565b5f80604083850312156115f1576115f06115a4565b5b5f6115fe858286016115c7565b925050602061160f858286016115c7565b9150509250929050565b611622816115a8565b82525050565b5f60208201905061163b5f830184611619565b92915050565b5f73ffffffffffffffffffffffffffffffffffffffff82169050919050565b5f61166a82611641565b9050919050565b61167a81611660565b8114611684575f80fd5b50565b5f8135905061169581611671565b92915050565b5f602082840312156116b0576116af6115a4565b5b5f6116bd84828501611687565b91505092915050565b6116cf81611660565b82525050565b5f6020820190506116e85f8301846116c6565b92915050565b5f805f60608486031215611705576117046115a4565b5b5f61171286828701611687565b935050602061172386828701611687565b9250506040611734868287016115c7565b9150509250925092565b5f8060408385031215611754576117536115a4565b5b5f61176185828601611687565b925050602061177285828601611687565b9150509250929050565b5f60408201905061178f5f830185611619565b61179c6020830184611619565b9392505050565b5f80604083850312156117b9576117b86115a4565b5b5f6117c685828601611687565b92505060206117d7858286016115c7565b9150509250929050565b5f81519050919050565b5f82825260208201905092915050565b5f819050602082019050919050565b61181381611660565b82525050565b5f611824838361180a565b60208301905092915050565b5f602082019050919050565b5f611846826117e1565b61185081856117eb565b935061185b836117fb565b805f5b8381101561188b5781516118728882611819565b975061187d83611830565b92505060018101905061185e565b5085935050505092915050565b5f6020820190508181035f8301526118b0818461183c565b905092915050565b5f602082840312156118cd576118cc6115a4565b5b5f6118da848285016115c7565b91505092915050565b5f805f606084860312156118fa576118f96115a4565b5b5f61190786828701611687565b9350506020611918868287016115c7565b9250506040611929868287016115c7565b9150509250925092565b7f4e487b71000000000000000000000000000000000000000000000000000000005f52601160045260245ffd5b5f61196a826115a8565b9150611975836115a8565b9250828202611983816115a8565b9150828204841483151761199a57611999611933565b5b5092915050565b7f4e487b71000000000000000000000000000000000000000000000000000000005f52601260045260245ffd5b5f6119d8826115a8565b91506119e3836115a8565b9250826119f3576119f26119a1565b5b828204905092915050565b5f611a08826115a8565b9150611a13836115a8565b9250828201905080821115611a2b57611a2a611933565b5b92915050565b7f4e487b71000000000000000000000000000000000000000000000000000000005f52603260045260245ffd5b5f611a68826115a8565b91507fffffffffffffffffffffffffffffffffffffffffffffffffffffffffffffffff8203611a9a57611a99611933565b5b600182019050919050565b5f606082019050611ab85f8301866116c6565b611ac560208301856116c6565b611ad26040830184611619565b949350505050565b5f8115159050919050565b611aee81611ada565b8114611af8575f80fd5b50565b5f81519050611b0981611ae5565b92915050565b5f60208284031215611b2457611b236115a4565b5b5f611b3184828501611afb565b91505092915050565b5f819050919050565b5f611b5d611b58611b5384611641565b611b3a565b611641565b9050919050565b5f611b6e82611b43565b9050919050565b5f611b7f82611b64565b9050919050565b611b8f81611b75565b82525050565b5f602082019050611ba85f830184611b86565b92915050565b5f69ffffffffffffffffffff82169050919050565b611bcc81611bae565b8114611bd6575f80fd5b50565b5f81519050611be781611bc3565b92915050565b5f819050919050565b611bff81611bed565b8114611c09575f80fd5b50565b5f81519050611c1a81611bf6565b92915050565b5f81519050611c2e816115b1565b92915050565b5f805f805f60a08688031215611c4d57611c4c6115a4565b5b5f611c5a88828901611bd9565b9550506020611c6b88828901611c0c565b9450506040611c7c88828901611c20565b9350506060611c8d88828901611c20565b9250506080611c9e88828901611bd9565b9150509295509295909350565b5f604082019050611cbe5f8301856116c6565b611ccb6020830184611619565b9392505050565b5f611cdc826115a8565b9150611ce7836115a8565b9250828203905081811115611cff57611cfe611933565b5b9291505056fea264697066735822122097a57e5448f22c2d183f5a04286fff530f60cf097e1532d412c3122fce61d55d64736f6c63430008140033","linkReferences":{"src/libraries/OracleLib.sol":{"OracleLib":[{"start":4366,"length":20},{"start":4808,"length":20}]}}},"methodIdentifiers":{"burnDsc(uint256)":"f6876608","calculateHealthFactor(uint256,uint256)":"01f72884","depositCollateral(address,uint256)":"a5d5db0c","depositCollateralAndMintDsc(address,uint256,uint256)":"e90db8a3","getAccountCollateralValue(address)":"7d1a4450","getAccountInformation(address)":"7be564fc","getAdditionalFeedPrecision()":"8f63d667","getCollateralBalanceOfUser(address,address)":"31e92b83","getCollateralTokenPriceFeed(address)":"1c08adda","getCollateralTokens()":"b58eb63f","getDsc()":"deb8e018","getHealthFactor(address)":"fe6bcd7c","getLiquidationBonus()":"59aa9e72","getLiquidationPrecision()":"6c8102c0","getLiquidationThreshold()":"4ae9b8bc","getMinHealthFactor()":"8c1ae6c8","getPrecision()":"9670c0bc","getTokenAmountFromUsd(address,uint256)":"afea2e48","getUsdValue(address,uint256)":"c660d112","liquidate(address,address,uint256)":"26c01303","mintDsc(uint256)":"c9b7c327","redeemCollateral(address,uint256)":"9acd81b3","redeemCollateralForDsc(address,uint256,uint256)":"f419ea9c"},"id":32}