{"abi":[{"type":"constructor","inputs":[{"name":"name","type":"string","internalType":"string"},{"name":"symbol","type":"string","internalType":"string"},{"name":"initialAccount","type":"address","internalType":"address"},{"name":"initialBalance","type":"uint256","internalType":"uint256"}],"stateMutability":"payable"},{"type":"function","name":"allowance","inputs":[{"name":"owner","type":"address","internalType":"address"},{"name":"spender","type":"address","internalType":"address"}],"outputs":[{"name":"","type":"uint256","internalType":"uint256"}],"stateMutability":"view"},{"type":"function","name":"approve","inputs":[{"name":"spender","type":"address","internalType":"address"},{"name":"value","type":"uint256","internalType":"uint256"}],"outputs":[{"name":"","type":"bool","internalType":"bool"}],"stateMutability":"nonpayable"},{"type":"function","name":"approveInternal","inputs":[{"name":"owner","type":"address","internalType":"address"},{"name":"spender","type":"address","internalType":"address"},{"name":"value","type":"uint256","internalType":"uint256"}],"outputs":[],"stateMutability":"nonpayable"},{"type":"function","name":"balanceOf","inputs":[{"name":"account","type":"address","internalType":"address"}],"outputs":[{"name":"","type":"uint256","internalType":"uint256"}],"stateMutability":"view"},{"type":"function","name":"burn","inputs":[{"name":"account","type":"address","internalType":"address"},{"name":"amount","type":"uint256","internalType":"uint256"}],"outputs":[],"stateMutability":"nonpayable"},{"type":"function","name":"decimals","inputs":[],"outputs":[{"name":"","type":"uint8","internalType":"uint8"}],"stateMutability":"view"},{"type":"function","name":"mint","inputs":[{"name":"account","type":"address","internalType":"address"},{"name":"amount","type":"uint256","internalType":"uint256"}],"outputs":[],"stateMutability":"nonpayable"},{"type":"function","name":"name","inputs":[],"outputs":[{"name":"","type":"string","internalType":"string"}],"stateMutability":"view"},{"type":"function","name":"symbol","inputs":[],"outputs":[{"name":"","type":"string","internalType":"string"}],"stateMutability":"view"},{"type":"function","name":"totalSupply","inputs":[],"outputs":[{"name":"","type":"uint256","internalType":"uint256"}],"stateMutability":"view"},{"type":"function","name":"transfer","inputs":[{"name":"to","type":"address","internalType":"address"},{"name":"value","type":"uint256","internalType":"uint256"}],"outputs":[{"name":"","type":"bool","internalType":"bool"}],"stateMutability":"nonpayable"},{"type":"function","name":"transferFrom","inputs":[{"name":"from","type":"address","internalType":"address"},{"name":"to","type":"address","internalType":"address"},{"name":"value","type":"uint256","internalType":"uint256"}],"outputs":[{"name":"","type":"bool","internalType":"bool"}],"stateMutability":"nonpayable"},{"type":"function","name":"transferInternal","inputs":[{"name":"from","type":"address","internalType":"address"},{"name":"to","type":"address","internalType":"address"},{"name":"value","type":"uint256","internalType":"uint256"}],"outputs":[],"stateMutability":"nonpayable"},{"type":"event","name":"Approval","inputs":[{"name":"owner","type":"address","indexed":true,"internalType":"address"},{"name":"spender","type":"address","indexed":true,"internalType":"address"},{"name":"value","type":"uint256","indexed":false,"internalType":"uint256"}],"anonymous":false},{"type":"event","name":"Transfer","inputs":[{"name":"from","type":"address","indexed":true,"internalType":"address"},{"name":"to","type":"address","indexed":true,"internalType":"address"},{"name":"value","type":"uint256","indexed":false,"internalType":"uint256"}],"anonymous":false},{"type":"error","name":"ERC20InsufficientAllowance","inputs":[{"name":"spender","type":"address","internalType":"address"},{"name":"allowance","type":"uint256","internalType":"uint256"},{"name":"needed","type":"uint256","internalType":"uint256"}]},{"type":"error","name":"ERC20InsufficientBalance","inputs":[{"name":"sender","type":"address","internalType":"address"},{"name":"balance","type":"uint256","internalType":"uint256"},{"name":"needed","type":"uint256","internalType":"uint256"}]},{"type":"error","name":"ERC20InvalidApprover","inputs":[{"name":"approver","type":"address","internalType":"address"}]},{"type":"error","name":"ERC20InvalidReceiver","inputs":[{"name":"receiver","type":"address","internalType":"address"}]},{"type":"error","name":"ERC20InvalidSender","inputs":[{"name":"sender","type":"address","internalType":"address"}]},{"type":"error","name":"ERC20InvalidSpender","inputs":[{"name":"spender","type":"address","internalType":"address"}]}],"bytecode":{"object":"0x6080604052604051620019e2380380620019e2833981810160405281019062000029919062000539565b838381600390816200003c919062000814565b5080600490816200004e919062000814565b5050506200006382826200006d60201b60201c565b50505050620009f2565b5f73ffffffffffffffffffffffffffffffffffffffff168273ffffffffffffffffffffffffffffffffffffffff1603620000e0575f6040517fec442f05000000000000000000000000000000000000000000000000000000008152600401620000d7919062000909565b60405180910390fd5b620000f35f8383620000f760201b60201c565b5050565b5f73ffffffffffffffffffffffffffffffffffffffff168373ffffffffffffffffffffffffffffffffffffffff16036200014b578060025f8282546200013e919062000951565b925050819055506200021c565b5f805f8573ffffffffffffffffffffffffffffffffffffffff1673ffffffffffffffffffffffffffffffffffffffff1681526020019081526020015f2054905081811015620001d7578381836040517fe450d38c000000000000000000000000000000000000000000000000000000008152600401620001ce939291906200099c565b60405180910390fd5b8181035f808673ffffffffffffffffffffffffffffffffffffffff1673ffffffffffffffffffffffffffffffffffffffff1681526020019081526020015f2081905550505b5f73ffffffffffffffffffffffffffffffffffffffff168273ffffffffffffffffffffffffffffffffffffffff160362000265578060025f8282540392505081905550620002af565b805f808473ffffffffffffffffffffffffffffffffffffffff1673ffffffffffffffffffffffffffffffffffffffff1681526020019081526020015f205f82825401925050819055505b8173ffffffffffffffffffffffffffffffffffffffff168373ffffffffffffffffffffffffffffffffffffffff167fddf252ad1be2c89b69c2b068fc378daa952ba7f163c4a11628f55a4df523b3ef836040516200030e9190620009d7565b60405180910390a3505050565b5f604051905090565b5f80fd5b5f80fd5b5f80fd5b5f80fd5b5f601f19601f8301169050919050565b7f4e487b71000000000000000000000000000000000000000000000000000000005f52604160045260245ffd5b6200037c8262000334565b810181811067ffffffffffffffff821117156200039e576200039d62000344565b5b80604052505050565b5f620003b26200031b565b9050620003c0828262000371565b919050565b5f67ffffffffffffffff821115620003e257620003e162000344565b5b620003ed8262000334565b9050602081019050919050565b5f5b8381101562000419578082015181840152602081019050620003fc565b5f8484015250505050565b5f6200043a6200043484620003c5565b620003a7565b90508281526020810184848401111562000459576200045862000330565b5b62000466848285620003fa565b509392505050565b5f82601f8301126200048557620004846200032c565b5b81516200049784826020860162000424565b91505092915050565b5f73ffffffffffffffffffffffffffffffffffffffff82169050919050565b5f620004cb82620004a0565b9050919050565b620004dd81620004bf565b8114620004e8575f80fd5b50565b5f81519050620004fb81620004d2565b92915050565b5f819050919050565b620005158162000501565b811462000520575f80fd5b50565b5f8151905062000533816200050a565b92915050565b5f805f806080858703121562000554576200055362000324565b5b5f85015167ffffffffffffffff81111562000574576200057362000328565b5b62000582878288016200046e565b945050602085015167ffffffffffffffff811115620005a657620005a562000328565b5b620005b4878288016200046e565b9350506040620005c787828801620004eb565b9250506060620005da8782880162000523565b91505092959194509250565b5f81519050919050565b7f4e487b71000000000000000000000000000000000000000000000000000000005f52602260045260245ffd5b5f60028204905060018216806200063557607f821691505b6020821081036200064b576200064a620005f0565b5b50919050565b5f819050815f5260205f209050919050565b5f6020601f8301049050919050565b5f82821b905092915050565b5f60088302620006af7fffffffffffffffffffffffffffffffffffffffffffffffffffffffffffffffff8262000672565b620006bb868362000672565b95508019841693508086168417925050509392505050565b5f819050919050565b5f620006fc620006f6620006f08462000501565b620006d3565b62000501565b9050919050565b5f819050919050565b6200071783620006dc565b6200072f620007268262000703565b8484546200067e565b825550505050565b5f90565b6200074562000737565b620007528184846200070c565b505050565b5b8181101562000779576200076d5f826200073b565b60018101905062000758565b5050565b601f821115620007c857620007928162000651565b6200079d8462000663565b81016020851015620007ad578190505b620007c5620007bc8562000663565b83018262000757565b50505b505050565b5f82821c905092915050565b5f620007ea5f1984600802620007cd565b1980831691505092915050565b5f620008048383620007d9565b9150826002028217905092915050565b6200081f82620005e6565b67ffffffffffffffff8111156200083b576200083a62000344565b5b6200084782546200061d565b620008548282856200077d565b5f60209050601f8311600181146200088a575f841562000875578287015190505b620008818582620007f7565b865550620008f0565b601f1984166200089a8662000651565b5f5b82811015620008c3578489015182556001820191506020850194506020810190506200089c565b86831015620008e35784890151620008df601f891682620007d9565b8355505b6001600288020188555050505b505050505050565b6200090381620004bf565b82525050565b5f6020820190506200091e5f830184620008f8565b92915050565b7f4e487b71000000000000000000000000000000000000000000000000000000005f52601160045260245ffd5b5f6200095d8262000501565b91506200096a8362000501565b925082820190508082111562000985576200098462000924565b5b92915050565b620009968162000501565b82525050565b5f606082019050620009b15f830186620008f8565b620009c060208301856200098b565b620009cf60408301846200098b565b949350505050565b5f602082019050620009ec5f8301846200098b565b92915050565b610fe28062000a005f395ff3fe608060405234801561000f575f80fd5b50600436106100cd575f3560e01c806340c10f191161008a57806395d89b411161006457806395d89b411461020f5780639dc29fac1461022d578063a9059cbb14610249578063dd62ed3e14610279576100cd565b806340c10f19146101a757806356189cb4146101c357806370a08231146101df576100cd565b806306fdde03146100d1578063095ea7b3146100ef57806318160ddd1461011f578063222f5be01461013d57806323b872dd14610159578063313ce56714610189575b5f80fd5b6100d96102a9565b6040516100e69190610c5b565b60405180910390f35b61010960048036038101906101049190610d0c565b610339565b6040516101169190610d64565b60405180910390f35b61012761035b565b6040516101349190610d8c565b60405180910390f35b61015760048036038101906101529190610da5565b610364565b005b610173600480360381019061016e9190610da5565b610374565b6040516101809190610d64565b60405180910390f35b6101916103a2565b60405161019e9190610e10565b60405180910390f35b6101c160048036038101906101bc9190610d0c565b6103aa565b005b6101dd60048036038101906101d89190610da5565b6103b8565b005b6101f960048036038101906101f49190610e29565b6103c8565b6040516102069190610d8c565b60405180910390f35b61021761040d565b6040516102249190610c5b565b60405180910390f35b61024760048036038101906102429190610d0c565b61049d565b005b610263600480360381019061025e9190610d0c565b6104ab565b6040516102709190610d64565b60405180910390f35b610293600480360381019061028e9190610e54565b6104cd565b6040516102a09190610d8c565b60405180910390f35b6060600380546102b890610ebf565b80601f01602080910402602001604051908101604052809291908181526020018280546102e490610ebf565b801561032f5780601f106103065761010080835404028352916020019161032f565b820191905f5260205f20905b81548152906001019060200180831161031257829003601f168201915b5050505050905090565b5f8061034361054f565b9050610350818585610556565b600191505092915050565b5f600254905090565b61036f838383610568565b505050565b5f8061037e61054f565b905061038b858285610658565b610396858585610568565b60019150509392505050565b5f6012905090565b6103b482826106eb565b5050565b6103c3838383610556565b505050565b5f805f8373ffffffffffffffffffffffffffffffffffffffff1673ffffffffffffffffffffffffffffffffffffffff1681526020019081526020015f20549050919050565b60606004805461041c90610ebf565b80601f016020809104026020016040519081016040528092919081815260200182805461044890610ebf565b80156104935780601f1061046a57610100808354040283529160200191610493565b820191905f5260205f20905b81548152906001019060200180831161047657829003601f168201915b5050505050905090565b6104a7828261076a565b5050565b5f806104b561054f565b90506104c2818585610568565b600191505092915050565b5f60015f8473ffffffffffffffffffffffffffffffffffffffff1673ffffffffffffffffffffffffffffffffffffffff1681526020019081526020015f205f8373ffffffffffffffffffffffffffffffffffffffff1673ffffffffffffffffffffffffffffffffffffffff1681526020019081526020015f2054905092915050565b5f33905090565b61056383838360016107e9565b505050565b5f73ffffffffffffffffffffffffffffffffffffffff168373ffffffffffffffffffffffffffffffffffffffff16036105d8575f6040517f96c6fd1e0000000000000000000000000000000000000000000000000000000081526004016105cf9190610efe565b60405180910390fd5b5f73ffffffffffffffffffffffffffffffffffffffff168273ffffffffffffffffffffffffffffffffffffffff1603610648575f6040517fec442f0500000000000000000000000000000000000000000000000000000000815260040161063f9190610efe565b60405180910390fd5b6106538383836109b8565b505050565b5f61066384846104cd565b90507fffffffffffffffffffffffffffffffffffffffffffffffffffffffffffffffff8110156106e557818110156106d6578281836040517ffb8f41b20000000000000000000000000000000000000000000000000000000081526004016106cd93929190610f17565b60405180910390fd5b6106e484848484035f6107e9565b5b50505050565b5f73ffffffffffffffffffffffffffffffffffffffff168273ffffffffffffffffffffffffffffffffffffffff160361075b575f6040517fec442f050000000000000000000000000000000000000000000000000000000081526004016107529190610efe565b60405180910390fd5b6107665f83836109b8565b5050565b5f73ffffffffffffffffffffffffffffffffffffffff168273ffffffffffffffffffffffffffffffffffffffff16036107da575f6040517f96c6fd1e0000000000000000000000000000000000000000000000000000000081526004016107d19190610efe565b60405180910390fd5b6107e5825f836109b8565b5050565b5f73ffffffffffffffffffffffffffffffffffffffff168473ffffffffffffffffffffffffffffffffffffffff1603610859575f6040517fe602df050000000000000000000000000000000000000000000000000000000081526004016108509190610efe565b60405180910390fd5b5f73ffffffffffffffffffffffffffffffffffffffff168373ffffffffffffffffffffffffffffffffffffffff16036108c9575f6040517f94280d620000000000000000000000000000000000000000000000000000000081526004016108c09190610efe565b60405180910390fd5b8160015f8673ffffffffffffffffffffffffffffffffffffffff1673ffffffffffffffffffffffffffffffffffffffff1681526020019081526020015f205f8573ffffffffffffffffffffffffffffffffffffffff1673ffffffffffffffffffffffffffffffffffffffff1681526020019081526020015f208190555080156109b2578273ffffffffffffffffffffffffffffffffffffffff168473ffffffffffffffffffffffffffffffffffffffff167f8c5be1e5ebec7d5bd14f71427d1e84f3dd0314c0f7b2291e5b200ac8c7c3b925846040516109a99190610d8c565b60405180910390a35b50505050565b5f73ffffffffffffffffffffffffffffffffffffffff168373ffffffffffffffffffffffffffffffffffffffff1603610a08578060025f8282546109fc9190610f79565b92505081905550610ad6565b5f805f8573ffffffffffffffffffffffffffffffffffffffff1673ffffffffffffffffffffffffffffffffffffffff1681526020019081526020015f2054905081811015610a91578381836040517fe450d38c000000000000000000000000000000000000000000000000000000008152600401610a8893929190610f17565b60405180910390fd5b8181035f808673ffffffffffffffffffffffffffffffffffffffff1673ffffffffffffffffffffffffffffffffffffffff1681526020019081526020015f2081905550505b5f73ffffffffffffffffffffffffffffffffffffffff168273ffffffffffffffffffffffffffffffffffffffff1603610b1d578060025f8282540392505081905550610b67565b805f808473ffffffffffffffffffffffffffffffffffffffff1673ffffffffffffffffffffffffffffffffffffffff1681526020019081526020015f205f82825401925050819055505b8173ffffffffffffffffffffffffffffffffffffffff168373ffffffffffffffffffffffffffffffffffffffff167fddf252ad1be2c89b69c2b068fc378daa952ba7f163c4a11628f55a4df523b3ef83604051610bc49190610d8c565b60405180910390a3505050565b5f81519050919050565b5f82825260208201905092915050565b5f5b83811015610c08578082015181840152602081019050610bed565b5f8484015250505050565b5f601f19601f8301169050919050565b5f610c2d82610bd1565b610c378185610bdb565b9350610c47818560208601610beb565b610c5081610c13565b840191505092915050565b5f6020820190508181035f830152610c738184610c23565b905092915050565b5f80fd5b5f73ffffffffffffffffffffffffffffffffffffffff82169050919050565b5f610ca882610c7f565b9050919050565b610cb881610c9e565b8114610cc2575f80fd5b50565b5f81359050610cd381610caf565b92915050565b5f819050919050565b610ceb81610cd9565b8114610cf5575f80fd5b50565b5f81359050610d0681610ce2565b92915050565b5f8060408385031215610d2257610d21610c7b565b5b5f610d2f85828601610cc5565b9250506020610d4085828601610cf8565b9150509250929050565b5f8115159050919050565b610d5e81610d4a565b82525050565b5f602082019050610d775f830184610d55565b92915050565b610d8681610cd9565b82525050565b5f602082019050610d9f5f830184610d7d565b92915050565b5f805f60608486031215610dbc57610dbb610c7b565b5b5f610dc986828701610cc5565b9350506020610dda86828701610cc5565b9250506040610deb86828701610cf8565b9150509250925092565b5f60ff82169050919050565b610e0a81610df5565b82525050565b5f602082019050610e235f830184610e01565b92915050565b5f60208284031215610e3e57610e3d610c7b565b5b5f610e4b84828501610cc5565b91505092915050565b5f8060408385031215610e6a57610e69610c7b565b5b5f610e7785828601610cc5565b9250506020610e8885828601610cc5565b9150509250929050565b7f4e487b71000000000000000000000000000000000000000000000000000000005f52602260045260245ffd5b5f6002820490506001821680610ed657607f821691505b602082108103610ee957610ee8610e92565b5b50919050565b610ef881610c9e565b82525050565b5f602082019050610f115f830184610eef565b92915050565b5f606082019050610f2a5f830186610eef565b610f376020830185610d7d565b610f446040830184610d7d565b949350505050565b7f4e487b71000000000000000000000000000000000000000000000000000000005f52601160045260245ffd5b5f610f8382610cd9565b9150610f8e83610cd9565b9250828201905080821115610fa657610fa5610f4c565b5b9291505056fea26469706673582212201048eecd6d1b38deb3c02378b83574fae85f22b9c95c0825f5dcbf842a9deb7064736f6c63430008140033","linkReferences":{}},"methodIdentifiers":{"allowance(address,address)":"dd62ed3e","approve(address,uint256)":"095ea7b3","approveInternal(address,address,uint256)":"56189cb4","balanceOf(address)":"70a08231","burn(address,uint256)":"9dc29fac","decimals()":"313ce567","mint(address,uint256)":"40c10f19","name()":"06fdde03","symbol()":"95d89b41","totalSupply()":"18160ddd","transfer(address,uint256)":"a9059cbb","transferFrom(address,address,uint256)":"23b872dd","transferInternal(address,address,uint256)":"222f5be0"},"id":37}